<!-- 
RSS generated by JIRA (8.20.10#820010-sha1:ace47f9899e9ee25d7157d59aa17ab06aee30d3d) at Wed Nov 12 20:09:08 UTC 2025

It is possible to restrict the fields that are returned in this document by specifying the 'field' parameter in your request.
For example, to request only the issue key and summary append 'field=key&field=summary' to the URL of your request.
-->
<rss version="0.92" >
<channel>
    <title>ASF Jira</title>
    <link>https://issues.apache.org/jira</link>
    <description>This file is an XML representation of an issue</description>
    <language>en-uk</language>    <build-info>
        <version>8.20.10</version>
        <build-number>820010</build-number>
        <build-date>22-06-2022</build-date>
    </build-info>


<item>
            <title>[SYNAPSE-906] Sample 158 sends POX instead of SOAP</title>
                <link>https://issues.apache.org/jira/browse/SYNAPSE-906</link>
                <project id="12310201" key="SYNAPSE">Synapse</project>
                    <description>&lt;p&gt;Sample 158 is expected to show how to exposing a SOAP service over JSON. However, the mediation sends POX (application/xml) instead of SOAP to the target service, as shown in the following capture:&lt;/p&gt;

&lt;p&gt;10:08:57.038488 IP 127.0.0.1.54720 &amp;gt; 127.0.0.1.9000: Flags &lt;span class=&quot;error&quot;&gt;&amp;#91;P.&amp;#93;&lt;/span&gt;, seq 4114502400:4114502611, ack 1752768016, win 65535, options &lt;span class=&quot;error&quot;&gt;&amp;#91;nop,nop,TS val 348985985 ecr 348985797&amp;#93;&lt;/span&gt;, length 211&lt;br/&gt;
	0x0000:  4500 0107 9f5e 4000 4006 0000 7f00 0001  E....^@.@.......&lt;br/&gt;
	0x0010:  7f00 0001 d5c0 2328 f53e 5300 6879 1e10  ......#(.&amp;gt;S.hy..&lt;br/&gt;
	0x0020:  8018 ffff fefb 0000 0101 080a 14cd 1a81  ................&lt;br/&gt;
	0x0030:  14cd 19c5 504f 5354 202f 7365 7276 6963  ....POST./servic&lt;br/&gt;
	0x0040:  6573 2f53 696d 706c 6553 746f 636b 5175  es/SimpleStockQu&lt;br/&gt;
	0x0050:  6f74 6553 6572 7669 6365 2048 5454 502f  oteService.HTTP/&lt;br/&gt;
	0x0060:  312e 310d 0a43 6f6e 7465 6e74 2d54 7970  1.1..Content-Typ&lt;br/&gt;
	0x0070:  653a 2061 7070 6c69 6361 7469 6f6e 2f78  e:.application/x&lt;br/&gt;
	0x0080:  6d6c 3b20 6368 6172 7365 743d 5554 462d  ml;.charset=UTF-&lt;br/&gt;
	0x0090:  380d 0a54 7261 6e73 6665 722d 456e 636f  8..Transfer-Enco&lt;br/&gt;
	0x00a0:  6469 6e67 3a20 6368 756e 6b65 640d 0a48  ding:.chunked..H&lt;br/&gt;
	0x00b0:  6f73 743a 206c 6f63 616c 686f 7374 3a39  ost:.localhost:9&lt;br/&gt;
	0x00c0:  3030 300d 0a43 6f6e 6e65 6374 696f 6e3a  000..Connection:&lt;br/&gt;
	0x00d0:  204b 6565 702d 416c 6976 650d 0a55 7365  .Keep-Alive..Use&lt;br/&gt;
	0x00e0:  722d 4167 656e 743a 2053 796e 6170 7365  r-Agent:.Synapse&lt;br/&gt;
	0x00f0:  2d48 7474 7043 6f6d 706f 6e65 6e74 732d  &lt;del&gt;HttpComponents&lt;/del&gt;&lt;br/&gt;
	0x0100:  4e49 4f0d 0a0d 0a                        NIO....&lt;br/&gt;
10:08:57.038537 IP 127.0.0.1.9000 &amp;gt; 127.0.0.1.54720: Flags &lt;span class=&quot;error&quot;&gt;&amp;#91;.&amp;#93;&lt;/span&gt;, ack 211, win 65535, options &lt;span class=&quot;error&quot;&gt;&amp;#91;nop,nop,TS val 348985985 ecr 348985985&amp;#93;&lt;/span&gt;, length 0&lt;br/&gt;
	0x0000:  4500 0034 a32d 4000 4006 0000 7f00 0001  E..4.-@.@.......&lt;br/&gt;
	0x0010:  7f00 0001 2328 d5c0 6879 1e10 f53e 53d3  ....#(..hy...&amp;gt;S.&lt;br/&gt;
	0x0020:  8010 ffff fe28 0000 0101 080a 14cd 1a81  .....(..........&lt;br/&gt;
	0x0030:  14cd 1a81                                ....&lt;br/&gt;
10:08:57.038676 IP 127.0.0.1.54720 &amp;gt; 127.0.0.1.9000: Flags &lt;span class=&quot;error&quot;&gt;&amp;#91;P.&amp;#93;&lt;/span&gt;, seq 211:418, ack 1, win 65535, options &lt;span class=&quot;error&quot;&gt;&amp;#91;nop,nop,TS val 348985985 ecr 348985985&amp;#93;&lt;/span&gt;, length 207&lt;br/&gt;
	0x0000:  4500 0103 d632 4000 4006 0000 7f00 0001  E....2@.@.......&lt;br/&gt;
	0x0010:  7f00 0001 d5c0 2328 f53e 53d3 6879 1e10  ......#(.&amp;gt;S.hy..&lt;br/&gt;
	0x0020:  8018 ffff fef7 0000 0101 080a 14cd 1a81  ................&lt;br/&gt;
	0x0030:  14cd 1a81 6334 0d0a 3c6e 7336 3a67 6574  ....c4..&amp;lt;ns6:get&lt;br/&gt;
	0x0040:  5175 6f74 6520 786d 6c6e 733a 6e73 363d  Quote.xmlns:ns6=&lt;br/&gt;
	0x0050:  2268 7474 703a 2f2f 7365 7276 6963 6573  &quot;http://services&lt;br/&gt;
	0x0060:  2e73 616d 706c 6573 223e 0a3c 6e73 373a  .samples&quot;&amp;gt;.&amp;lt;ns7:&lt;br/&gt;
	0x0070:  7265 7175 6573 7420 786d 6c6e 733a 6e73  request.xmlns:ns&lt;br/&gt;
	0x0080:  373d 2268 7474 703a 2f2f 7365 7276 6963  7=&quot;http://servic&lt;br/&gt;
	0x0090:  6573 2e73 616d 706c 6573 223e 0a3c 6e73  es.samples&quot;&amp;gt;.&amp;lt;ns&lt;br/&gt;
	0x00a0:  383a 7379 6d62 6f6c 2078 6d6c 6e73 3a6e  8:symbol.xmlns:n&lt;br/&gt;
	0x00b0:  7338 3d22 6874 7470 3a2f 2f73 6572 7669  s8=&quot;http://servi&lt;br/&gt;
	0x00c0:  6365 732e 7361 6d70 6c65 7322 3e49 424d  ces.samples&quot;&amp;gt;IBM&lt;br/&gt;
	0x00d0:  3c2f 6e73 383a 7379 6d62 6f6c 3e0a 3c2f  &amp;lt;/ns8:symbol&amp;gt;.&amp;lt;/&lt;br/&gt;
	0x00e0:  6e73 373a 7265 7175 6573 743e 0a3c 2f6e  ns7:request&amp;gt;.&amp;lt;/n&lt;br/&gt;
	0x00f0:  7336 3a67 6574 5175 6f74 653e 0d0a 300d  s6:getQuote&amp;gt;..0.&lt;br/&gt;
	0x0100:  0a0d 0a                                  ...&lt;/p&gt;</description>
                <environment></environment>
        <key id="12603558">SYNAPSE-906</key>
            <summary>Sample 158 sends POX instead of SOAP</summary>
                <type id="1" iconUrl="https://issues.apache.org/jira/secure/viewavatar?size=xsmall&amp;avatarId=21133&amp;avatarType=issuetype">Bug</type>
                                            <priority id="4" iconUrl="https://issues.apache.org/jira/images/icons/priorities/minor.svg">Minor</priority>
                        <status id="5" iconUrl="https://issues.apache.org/jira/images/icons/statuses/resolved.png" description="A resolution has been taken, and it is awaiting verification by reporter. From here issues are either reopened, or are closed.">Resolved</status>
                    <statusCategory id="3" key="done" colorName="green"/>
                                    <resolution id="1">Fixed</resolution>
                                        <assignee username="veithen">Andreas Veithen-Knowles</assignee>
                                    <reporter username="veithen">Andreas Veithen-Knowles</reporter>
                        <labels>
                    </labels>
                <created>Wed, 15 Aug 2012 08:27:55 +0000</created>
                <updated>Thu, 16 Aug 2012 16:25:01 +0000</updated>
                            <resolved>Thu, 16 Aug 2012 16:25:01 +0000</resolved>
                                                                    <component>Documentation</component>
                        <due></due>
                            <votes>0</votes>
                                    <watches>2</watches>
                                                                                                                <comments>
                            <comment id="13435488" author="hudson" created="Wed, 15 Aug 2012 20:23:26 +0000"  >&lt;p&gt;Integrated in Synapse - Trunk #4388 (See &lt;a href=&quot;https://builds.apache.org/job/Synapse%20-%20Trunk/4388/&quot; class=&quot;external-link&quot; target=&quot;_blank&quot; rel=&quot;nofollow noopener&quot;&gt;https://builds.apache.org/job/Synapse%20-%20Trunk/4388/&lt;/a&gt;)&lt;br/&gt;
    &lt;a href=&quot;https://issues.apache.org/jira/browse/SYNAPSE-906&quot; title=&quot;Sample 158 sends POX instead of SOAP&quot; class=&quot;issue-link&quot; data-issue-key=&quot;SYNAPSE-906&quot;&gt;&lt;del&gt;SYNAPSE-906&lt;/del&gt;&lt;/a&gt;: Fixed sample 158 so that it actually sends SOAP (not POX) to the target service. (Revision 1373590)&lt;/p&gt;

&lt;p&gt;     Result = SUCCESS&lt;br/&gt;
veithen : &lt;br/&gt;
Files : &lt;/p&gt;
&lt;ul&gt;
	&lt;li&gt;/synapse/trunk/java/modules/documentation/src/site/xdoc/userguide/samples/sample158.xml&lt;/li&gt;
	&lt;li&gt;/synapse/trunk/java/repository/conf/sample/synapse_sample_158.xml&lt;/li&gt;
&lt;/ul&gt;
</comment>
                    </comments>
                    <attachments>
                    </attachments>
                <subtasks>
                    </subtasks>
                <customfields>
                                                                            <customfield id="customfield_12310310" key="com.atlassian.jira.toolkit:attachments">
                        <customfieldname>Attachment count</customfieldname>
                        <customfieldvalues>
                            <customfieldvalue>0.0</customfieldvalue>
                        </customfieldvalues>
                    </customfield>
                                                                                                                                                                                                                                                                                                                                                                                                                                                                                                                                                                                                                                                                                                        <customfield id="customfield_12314020" key="com.atlassian.jira.plugins.jira-development-integration-plugin:devsummary">
                        <customfieldname>Development</customfieldname>
                        <customfieldvalues>
                            
                        </customfieldvalues>
                    </customfield>
                                                                                                                        <customfield id="customfield_12313422" key="com.atlassian.jirafisheyeplugin:jobcheckbox">
                        <customfieldname>Enable Automatic Patch Review</customfieldname>
                        <customfieldvalues>
                            <customfieldvalue><![CDATA[false]]></customfieldvalue>

                        </customfieldvalues>
                    </customfield>
                                                                                                                                                                                                                                                                                                                                                                                                                                                                                                                                                                                                                    <customfield id="customfield_12310420" key="com.pyxis.greenhopper.jira:gh-global-rank">
                        <customfieldname>Global Rank</customfieldname>
                        <customfieldvalues>
                            <customfieldvalue>295561</customfieldvalue>
                        </customfieldvalues>
                    </customfield>
                                                                                                                                                                                                                                        <customfield id="customfield_12312521" key="com.atlassian.jira.toolkit:LastCommentDate">
                        <customfieldname>Last public comment date</customfieldname>
                        <customfieldvalues>
                            13 years, 14 weeks, 6 days ago
                        </customfieldvalues>
                    </customfield>
                                                                                                                                                                                                                                                                                                <customfield id="customfield_12311820" key="com.pyxis.greenhopper.jira:gh-lexo-rank">
                        <customfieldname>Rank</customfieldname>
                        <customfieldvalues>
                            <customfieldvalue>0|i11m27:</customfieldvalue>

                        </customfieldvalues>
                    </customfield>
                                                                <customfield id="customfield_12310920" key="com.pyxis.greenhopper.jira:gh-global-rank">
                        <customfieldname>Rank (Obsolete)</customfieldname>
                        <customfieldvalues>
                            <customfieldvalue>217540</customfieldvalue>
                        </customfieldvalues>
                    </customfield>
                                                                                                                                                                                                                                                                                                                                                                                                                                                                                                                                                                                                                                                                                                                                                                                            </customfields>
    </item>
</channel>
</rss>